{
  "contractName": "ItemManager",
  "abi": [
    {
      "anonymous": false,
      "inputs": [
        {
          "indexed": false,
          "internalType": "uint256",
          "name": "_itemIndex",
          "type": "uint256"
        },
        {
          "indexed": false,
          "internalType": "uint256",
          "name": "_step",
          "type": "uint256"
        },
        {
          "indexed": false,
          "internalType": "address",
          "name": "_itemAddress",
          "type": "address"
        }
      ],
      "name": "SupplyChainStep",
      "type": "event"
    },
    {
      "inputs": [],
      "name": "isOwner",
      "outputs": [
        {
          "internalType": "bool",
          "name": "",
          "type": "bool"
        }
      ],
      "stateMutability": "view",
      "type": "function",
      "constant": true
    },
    {
      "inputs": [
        {
          "internalType": "uint256",
          "name": "",
          "type": "uint256"
        }
      ],
      "name": "items",
      "outputs": [
        {
          "internalType": "contract Item",
          "name": "_item",
          "type": "address"
        },
        {
          "internalType": "string",
          "name": "_identifier",
          "type": "string"
        },
        {
          "internalType": "uint256",
          "name": "_itemPrice",
          "type": "uint256"
        },
        {
          "internalType": "enum ItemManager.SupplyChainState",
          "name": "_state",
          "type": "uint8"
        }
      ],
      "stateMutability": "view",
      "type": "function",
      "constant": true
    },
    {
      "inputs": [
        {
          "internalType": "string",
          "name": "_identifier",
          "type": "string"
        },
        {
          "internalType": "uint256",
          "name": "_itemPrice",
          "type": "uint256"
        }
      ],
      "name": "createItem",
      "outputs": [],
      "stateMutability": "nonpayable",
      "type": "function"
    },
    {
      "inputs": [
        {
          "internalType": "uint256",
          "name": "_itemIndex",
          "type": "uint256"
        }
      ],
      "name": "triggerPayment",
      "outputs": [],
      "stateMutability": "payable",
      "type": "function",
      "payable": true
    },
    {
      "inputs": [
        {
          "internalType": "uint256",
          "name": "_itemIndex",
          "type": "uint256"
        }
      ],
      "name": "triggerDelivery",
      "outputs": [],
      "stateMutability": "nonpayable",
      "type": "function"
    }
  ],
  "bytecode": "0x608060405234801561001057600080fd5b50336000806101000a81548173ffffffffffffffffffffffffffffffffffffffff021916908373ffffffffffffffffffffffffffffffffffffffff1602179055506118c7806100606000396000f3fe608060405260043610620000505760003560e01c8063800fb83f14620000555780638c55174214620000755780638f32d59b14620000a3578063bfb231d214620000d3578063cd31831e146200011a575b600080fd5b6200007360048036038101906200006d919062000b53565b62000148565b005b3480156200008257600080fd5b50620000a160048036038101906200009b919062000af9565b62000403565b005b348015620000b057600080fd5b50620000bb62000659565b604051620000ca919062000d12565b60405180910390f35b348015620000e057600080fd5b50620000ff6004803603810190620000f9919062000b53565b620006b0565b60405162000111949392919062000d6c565b60405180910390f35b3480156200012757600080fd5b5062000146600480360381019062000140919062000b53565b6200079d565b005b6200015262000659565b62000194576040517f08c379a00000000000000000000000000000000000000000000000000000000081526004016200018b9062000e04565b60405180910390fd5b34600160008381526020019081526020016000206002015414620001ef576040517f08c379a0000000000000000000000000000000000000000000000000000000008152600401620001e69062000de2565b60405180910390fd5b600060028111156200022a577f4e487b7100000000000000000000000000000000000000000000000000000000600052602160045260246000fd5b6001600083815260200190815260200160002060030160009054906101000a900460ff16600281111562000287577f4e487b7100000000000000000000000000000000000000000000000000000000600052602160045260246000fd5b14620002ca576040517f08c379a0000000000000000000000000000000000000000000000000000000008152600401620002c19062000dc0565b60405180910390fd5b600180600083815260200190815260200160002060030160006101000a81548160ff021916908360028111156200032a577f4e487b7100000000000000000000000000000000000000000000000000000000600052602160045260246000fd5b02179055507fa4035636e99f06b7651a604c1019fa4e8779fe68ef27eeb74dff2de348f6199b816001600084815260200190815260200160002060030160009054906101000a900460ff166002811115620003ae577f4e487b7100000000000000000000000000000000000000000000000000000000600052602160045260246000fd5b60016000600254815260200190815260200160002060000160009054906101000a900473ffffffffffffffffffffffffffffffffffffffff16604051620003f89392919062000e26565b60405180910390a150565b6200040d62000659565b6200044f576040517f08c379a0000000000000000000000000000000000000000000000000000000008152600401620004469062000e04565b60405180910390fd5b600030826002546040516200046490620009b2565b620004729392919062000d2f565b604051809103906000f0801580156200048f573d6000803e3d6000fd5b5090508060016000600254815260200190815260200160002060000160006101000a81548173ffffffffffffffffffffffffffffffffffffffff021916908373ffffffffffffffffffffffffffffffffffffffff16021790555082600160006002548152602001908152602001600020600101908051906020019062000517929190620009c0565b508160016000600254815260200190815260200160002060020181905550600060016000600254815260200190815260200160002060030160006101000a81548160ff0219169083600281111562000598577f4e487b7100000000000000000000000000000000000000000000000000000000600052602160045260246000fd5b02179055507fa4035636e99f06b7651a604c1019fa4e8779fe68ef27eeb74dff2de348f6199b60025460016000600254815260200190815260200160002060030160009054906101000a900460ff16600281111562000620577f4e487b7100000000000000000000000000000000000000000000000000000000600052602160045260246000fd5b83604051620006329392919062000e26565b60405180910390a1600260008154809291906200064f9062001024565b9190505550505050565b60008060009054906101000a900473ffffffffffffffffffffffffffffffffffffffff1673ffffffffffffffffffffffffffffffffffffffff163373ffffffffffffffffffffffffffffffffffffffff1614905090565b60016020528060005260406000206000915090508060000160009054906101000a900473ffffffffffffffffffffffffffffffffffffffff1690806001018054620006fb9062000fee565b80601f0160208091040260200160405190810160405280929190818152602001828054620007299062000fee565b80156200077a5780601f106200074e576101008083540402835291602001916200077a565b820191906000526020600020905b8154815290600101906020018083116200075c57829003601f168201915b5050505050908060020154908060030160009054906101000a900460ff16905084565b60006002811115620007d8577f4e487b7100000000000000000000000000000000000000000000000000000000600052602160045260246000fd5b6001600083815260200190815260200160002060030160009054906101000a900460ff16600281111562000835577f4e487b7100000000000000000000000000000000000000000000000000000000600052602160045260246000fd5b1462000878576040517f08c379a00000000000000000000000000000000000000000000000000000000081526004016200086f9062000dc0565b60405180910390fd5b60026001600083815260200190815260200160002060030160006101000a81548160ff02191690836002811115620008d9577f4e487b7100000000000000000000000000000000000000000000000000000000600052602160045260246000fd5b02179055507fa4035636e99f06b7651a604c1019fa4e8779fe68ef27eeb74dff2de348f6199b816001600084815260200190815260200160002060030160009054906101000a900460ff1660028111156200095d577f4e487b7100000000000000000000000000000000000000000000000000000000600052602160045260246000fd5b60016000600254815260200190815260200160002060000160009054906101000a900473ffffffffffffffffffffffffffffffffffffffff16604051620009a79392919062000e26565b60405180910390a150565b610721806200117183390190565b828054620009ce9062000fee565b90600052602060002090601f016020900481019282620009f2576000855562000a3e565b82601f1062000a0d57805160ff191683800117855562000a3e565b8280016001018555821562000a3e579182015b8281111562000a3d57825182559160200191906001019062000a20565b5b50905062000a4d919062000a51565b5090565b5b8082111562000a6c57600081600090555060010162000a52565b5090565b600062000a8762000a818462000e97565b62000e63565b90508281526020810184848401111562000aa057600080fd5b62000aad84828562000fa9565b509392505050565b600082601f83011262000ac757600080fd5b813562000ad984826020860162000a70565b91505092915050565b60008135905062000af38162001156565b92915050565b6000806040838503121562000b0d57600080fd5b600083013567ffffffffffffffff81111562000b2857600080fd5b62000b368582860162000ab5565b925050602062000b498582860162000ae2565b9150509250929050565b60006020828403121562000b6657600080fd5b600062000b768482850162000ae2565b91505092915050565b62000b8a8162000ee6565b82525050565b62000b9b8162000efa565b82525050565b62000bac8162000f45565b82525050565b62000bbd8162000f6d565b82525050565b62000bce8162000f95565b82525050565b600062000be18262000eca565b62000bed818562000ed5565b935062000bff81856020860162000fb8565b62000c0a816200112e565b840191505092915050565b600062000c24601c8362000ed5565b91507f4974656d206973206675727468657220696e2074686520636861696e000000006000830152602082019050919050565b600062000c6660228362000ed5565b91507f4f6e6c792066756c6c207061796d656e742077696c6c2062652061636365707460008301527f65640000000000000000000000000000000000000000000000000000000000006020830152604082019050919050565b600062000cce60158362000ed5565b91507f596f7520617265206e6f7420746865206f776e657200000000000000000000006000830152602082019050919050565b62000d0c8162000f3b565b82525050565b600060208201905062000d29600083018462000b90565b92915050565b600060608201905062000d46600083018662000ba1565b62000d55602083018562000d01565b62000d64604083018462000d01565b949350505050565b600060808201905062000d83600083018762000bb2565b818103602083015262000d97818662000bd4565b905062000da8604083018562000d01565b62000db7606083018462000bc3565b95945050505050565b6000602082019050818103600083015262000ddb8162000c15565b9050919050565b6000602082019050818103600083015262000dfd8162000c57565b9050919050565b6000602082019050818103600083015262000e1f8162000cbf565b9050919050565b600060608201905062000e3d600083018662000d01565b62000e4c602083018562000d01565b62000e5b604083018462000b7f565b949350505050565b6000604051905081810181811067ffffffffffffffff8211171562000e8d5762000e8c620010ff565b5b8060405250919050565b600067ffffffffffffffff82111562000eb55762000eb4620010ff565b5b601f19601f8301169050602081019050919050565b600081519050919050565b600082825260208201905092915050565b600062000ef38262000f1b565b9050919050565b60008115159050919050565b600081905062000f16826200113f565b919050565b600073ffffffffffffffffffffffffffffffffffffffff82169050919050565b6000819050919050565b600062000f528262000f59565b9050919050565b600062000f668262000f1b565b9050919050565b600062000f7a8262000f81565b9050919050565b600062000f8e8262000f1b565b9050919050565b600062000fa28262000f06565b9050919050565b82818337600083830152505050565b60005b8381101562000fd857808201518184015260208101905062000fbb565b8381111562000fe8576000848401525b50505050565b600060028204905060018216806200100757607f821691505b602082108114156200101e576200101d620010d0565b5b50919050565b6000620010318262000f3b565b91507fffffffffffffffffffffffffffffffffffffffffffffffffffffffffffffffff82141562001067576200106662001072565b5b600182019050919050565b7f4e487b7100000000000000000000000000000000000000000000000000000000600052601160045260246000fd5b7f4e487b7100000000000000000000000000000000000000000000000000000000600052602160045260246000fd5b7f4e487b7100000000000000000000000000000000000000000000000000000000600052602260045260246000fd5b7f4e487b7100000000000000000000000000000000000000000000000000000000600052604160045260246000fd5b6000601f19601f8301169050919050565b60038110620011535762001152620010a1565b5b50565b620011618162000f3b565b81146200116d57600080fd5b5056fe608060405234801561001057600080fd5b50604051610721380380610721833981810160405281019061003291906100b3565b816000819055508060028190555082600360006101000a81548173ffffffffffffffffffffffffffffffffffffffff021916908373ffffffffffffffffffffffffffffffffffffffff16021790555050505061017e565b60008151905061009881610150565b92915050565b6000815190506100ad81610167565b92915050565b6000806000606084860312156100c857600080fd5b60006100d686828701610089565b93505060206100e78682870161009e565b92505060406100f88682870161009e565b9150509250925092565b600061010d82610126565b9050919050565b600061011f82610102565b9050919050565b600073ffffffffffffffffffffffffffffffffffffffff82169050919050565b6000819050919050565b61015981610114565b811461016457600080fd5b50565b61017081610146565b811461017b57600080fd5b50565b6105948061018d6000396000f3fe6080604052600436106100385760003560e01c80632986c0e5146102505780633c8da5881461027b57806389794d00146102a657610241565b3661024157600060015414610082576040517f08c379a0000000000000000000000000000000000000000000000000000000008152600401610079906103fa565b60405180910390fd5b34600054146100c6576040517f08c379a00000000000000000000000000000000000000000000000000000000081526004016100bd9061041a565b60405180910390fd5b34600160008282546100d8919061049c565b925050819055506000600360009054906101000a900473ffffffffffffffffffffffffffffffffffffffff1673ffffffffffffffffffffffffffffffffffffffff163460025460405160240161012e919061045a565b6040516020818303038152906040527f800fb83f000000000000000000000000000000000000000000000000000000007bffffffffffffffffffffffffffffffffffffffffffffffffffffffff19166020820180517bffffffffffffffffffffffffffffffffffffffffffffffffffffffff83818316178352505050506040516101b891906103e3565b60006040518083038185875af1925050503d80600081146101f5576040519150601f19603f3d011682016040523d82523d6000602084013e6101fa565b606091505b505090508061023e576040517f08c379a00000000000000000000000000000000000000000000000000000000081526004016102359061043a565b60405180910390fd5b50005b34801561024d57600080fd5b50005b34801561025c57600080fd5b506102656102d1565b604051610272919061045a565b60405180910390f35b34801561028757600080fd5b506102906102d7565b60405161029d919061045a565b60405180910390f35b3480156102b257600080fd5b506102bb6102dd565b6040516102c8919061045a565b60405180910390f35b60025481565b60005481565b60015481565b60006102ee82610475565b6102f88185610480565b93506103088185602086016104fc565b80840191505092915050565b600061032160148361048b565b91507f4974656d206973207061696420616c72656164790000000000000000000000006000830152602082019050919050565b6000610361601c8361048b565b91507f4f6e6c792066756c6c207061796d656e7420697320616c6c6f776564000000006000830152602082019050919050565b60006103a1601f8361048b565b91507f546865207472616e736174696f6e206661696c732c2063616e63656c696e67006000830152602082019050919050565b6103dd816104f2565b82525050565b60006103ef82846102e3565b915081905092915050565b6000602082019050818103600083015261041381610314565b9050919050565b6000602082019050818103600083015261043381610354565b9050919050565b6000602082019050818103600083015261045381610394565b9050919050565b600060208201905061046f60008301846103d4565b92915050565b600081519050919050565b600081905092915050565b600082825260208201905092915050565b60006104a7826104f2565b91506104b2836104f2565b9250827fffffffffffffffffffffffffffffffffffffffffffffffffffffffffffffffff038211156104e7576104e661052f565b5b828201905092915050565b6000819050919050565b60005b8381101561051a5780820151818401526020810190506104ff565b83811115610529576000848401525b50505050565b7f4e487b7100000000000000000000000000000000000000000000000000000000600052601160045260246000fdfea2646970667358221220d56b9fe8b16ff0a1e296807532a346c7f344488c2b5aa373628ec42e4318905064736f6c63430008000033a264697066735822122052d08d047ad53a2cf6228175070689f090a041b8a0eb5f24579dfc7b001e0aa464736f6c63430008000033",
  "immutableReferences": {},
  "source": "// SPDX-License-Identifier: MIT\npragma solidity >=0.6.0 <0.8.13;\nimport \"./Item.sol\";\nimport \"./Ownable.sol\";\ncontract ItemManager is Ownable{\n    enum SupplyChainState{created, Paid, Delivered}\n\n    struct S_Item{\n        Item _item;\n        string _identifier;\n        uint _itemPrice;\n        ItemManager.SupplyChainState _state;\n    }\n    mapping(uint=>S_Item)public items;\n    uint itemIndex;\n    event SupplyChainStep(uint _itemIndex, uint _step, address _itemAddress);\n\n    function createItem(string memory _identifier, uint _itemPrice)public onlyOwner{\n        Item item=new Item(this, _itemPrice, itemIndex);\n        items[itemIndex]._item=item;\n        items[itemIndex]._identifier=_identifier;\n        items[itemIndex]._itemPrice=_itemPrice;\n        items[itemIndex]._state=SupplyChainState.created;\n        emit SupplyChainStep(itemIndex, uint(items[itemIndex]._state), address(item));\n        itemIndex++;\n    }\n\n    function triggerPayment(uint _itemIndex)public payable onlyOwner{\n        require(items[_itemIndex]._itemPrice==msg.value,\"Only full payment will be accepted\");\n        require(items[_itemIndex]._state==SupplyChainState.created, \"Item is further in the chain\");\n        items[_itemIndex]._state=SupplyChainState.Paid;\n        emit SupplyChainStep(_itemIndex,uint (items[_itemIndex]._state), address(items[itemIndex]._item));\n    }\n    function triggerDelivery(uint _itemIndex)public{\n        require(items[_itemIndex]._state==SupplyChainState.created, \"Item is further in the chain\");\n        items[_itemIndex]._state=SupplyChainState.Delivered;\n        emit SupplyChainStep(_itemIndex, uint (items[_itemIndex]._state), address (items[itemIndex]._item));\n    }\n}",
  "sourcePath": "/home/pianist/bcText/contracts/ItemManager.sol",
  "compiler": {
    "name": "solc",
    "version": "0.8.0+commit.c7dfd78e.Emscripten.clang"
  },
  "schemaVersion": "3.4.6",
  "updatedAt": "2022-03-29T02:43:39.119Z",
  "networkType": "ethereum",
  "devdoc": {
    "kind": "dev",
    "methods": {},
    "version": 1
  },
  "userdoc": {
    "kind": "user",
    "methods": {},
    "version": 1
  }
}